:060000000A128A11122809
:10000800FE00030EF9000408FA000A08FB00831238
:1000180003137F08FC000A128A115A2C0A128A114B
:1000280015280A128A11C424CF00CC01CD01CE01B3
:1000380083010A128A11CE2983120313C1003530B5
:10004800B7003708BA00013083120313B407FF3032
:10005800340784000A128A11DB230A128A11B700B6
:100068003708C20042080319C72925304206031978
:1000780049284208B70041088400370883138000E4
:100088000130B7003708C1072728BF01C001BE01EA
:1000980052283E150130B7003708B40734088400E9
:1000A8000A128A11DB230A128A11303A03194D28E1
:1000B8005D28340884000A128A11DB230A128A1187
:1000C8000A128A118B240A128A11031CA928831286
:1000D8000313BF01C0010A3083120313A0000030CC
:1000E800A1004008A3003F08A2000A128A11F823C1
:1000F8000A128A11831203132108C0002008BF00C6
:10010800340884000A128A11DB230A128A11D03EAD
:10011800B700FF3003180030B8003708BF070318CE
:10012800C00A3808C0070130B7003708B4073408D8
:1001380084000A128A11DB230A128A110A128A1110
:100148008B240A128A1103186F28013083120313B3
:10015800B407FF30340784000A128A11DB230A121D
:100168008A11C200003A0319C729643A0319C02842
:100178000D3A0319C0282728831203133A0884006C
:1001880083130008BC00840A0008BD000230B700D1
:100198003708BA07BD1FD9280330B7003708BE048F
:1001A800BC09BD09BC0A0319BD0AC201C20A05304F
:1001B8004206031900294208B7003707013E8400A8
:1001C8000A128A11DB230A128A11B8000A128A114C
:1001D800DB230A128A11B90039083D02031DF628EB
:1001E80038083C02031C00290130B7003708C20751
:1001F80005304206031DDF283F08400403190E2975
:100208003E08033903190E29FF30BF070318C00A37
:10021800FF30C0074208B700B801B71BB803380859
:10022800803AB9004008803A3902031D1D293F0869
:10023800370203182D29831203134208B700B801A7
:10024800B71BB8033708BF023808031CC003C00235
:10025800312983120313BF01C0013E1D58293E08EE
:100268000339031942292D30B700410884003708A3
:10027800831380000130B7003708C1073F084004E6
:10028800031980293030B7004108840037088313E8
:1002980080000130B7003708C107FF30BF070318D7
:1002A800C00AFF30C00742293F08400403197129DA
:1002B8002030B700410884003708831380000130DC
:1002C800B7003708C107FF30BF070318C00AFF305F
:1002D800C0073F084004031D5C293E080339031981
:1002E80080292D30B7004108840037088313800027
:1002F8000130B7003708C1074208B7003708BB000C
:10030800FF30B7003708BB073B0A031927280A3014
:10031800AE000030AF003B08B7003707013E84004D
:100328000A128A11DB230A128A11A6000A128A11FC
:10033800DB230A128A11A7003D08A9003C08A8007F
:100348000A128A110A230A128A1183120313270830
:10035800B1002608B0000A128A1148230A128A112D
:10036800831203132E08303EB8003808C200420832
:10037800B700410884003708831380000130B700B4
:100388003708C107842983120313410884008313A3
:10039800800108000A128A11AB240A128A110A1273
:1003A8008A1172220A128A110A128A113C240A122C
:1003B8008A11413083120313C400ED30C300C30B0C
:1003C800E329C40BE329E8298B17003083120313B0
:1003D800A400A5000A128A1176240A128A11003094
:1003E8000A128A119B240A128A110B3083120313F2
:1003F800A4008030A5000A128A11A7230A128A11C4
:100408000330831203134D02533003194C02031CAB
:10041800152A1330C3004308B4000030B500B600F5
:100428004C2A113083120313A6000030A7004D0890
:10043800A1004C08A0000630A2000030A3000A1258
:100448008A11F8230A128A11831203132108A900BA
:100458002008A8000A128A110A230A128A11831294
:1004680003132609C3002709C400C30A0319C40AD1
:1004780043082C3EC60044080318013E013EC7004D
:100488001330C3004308B4004708B6004608B50057
:1004980048300A128A1120200A128A1140300A12A2
:1004A8008A119B240A128A11483083120313A4006C
:1004B8000030A5000A128A11A7230A128A110630F1
:1004C80083120313C5001330C400AD30C300C30B3F
:1004D8006B2AC40B6B2AC50B6B2A042A83160313D9
:1004E8000610831603170912831603138511831642
:1004F80003178811831603130511831603170811B0
:10050800C6308316031387008312031306100A12DA
:100518008A11BC240A128A110A128A11C0240A12EA
:100528008A11623083120313A5006530A400A40B5E
:100538009B2AA50B9B2A02300A128A111B240A1235
:100548008A110D3083120313A500FB30A400A40BFD
:10055800AB2AA50BAB2A28300A128A111B240A12CF
:100568008A1108300A128A111B240A128A110F30C4
:100578000A128A111B240A128A1106300A128A11D9
:100588001B24080083120313A100211CCF2A831205
:1005980003130714D22A8312031307102108A0009B
:1005A80001300310A00CFF3E031DD52A201CE02AB1
:1005B800831203138715E32A831203138711210873
:1005C800A00002300310A00CFF3E031DE62A201CE9
:1005D800F12A831203130716F42A8312031307124E
:1005E8002108A00003300310A00CFF3E031DF72ACA
:1005F800201C022B831203138716052B8312031367
:100608008712061406140614061008008312031332
:10061800AB01AC01260827040319432BAD01AD0A31
:10062800A71B222B01300310A60DA70DFF3E031DAB
:10063800172B0130AA002A08AD07142B013003102C
:10064800AB0DAC0DFF3E031D232B27082902031D0C
:100658002F2B26082802031C382B2608A802270857
:10066800031CA903A9022B1401300310A70CA60C24
:10067800FF3E031D392B0130AD02031D222B2C0830
:10068800A7002B08A6000800831203132E082F04C6
:100698000319772BB301B30AAF1B5E2B013003108C
:1006A800AE0DAF0DFF3E031D532B0130B2003208D3
:1006B800B307502B2F083102031D642B2E0830027C
:1006C800031C6C2B2E08B0022F08031CB103B102C7
:1006D80001300310AF0CAE0CFF3E031D6D2B013033
:1006E800B302031D5E2B3108AF003008AE000800CE
:1006F800831203139F149F187F2B831603131E085E
:10070800F20006300310F20CFF3E031D862B831205
:1007180003131E08F300F4010310F30DF40D031086
:10072800F30DF40D72087307F5000030031801305B
:100738007407F6007508F7007608F8007808F100E5
:100748007708F00008000A128A11B8240A128A11E0
:10075800831203132508FF00240884000A128A1153
:10076800D1230A128A11003A0319080083120313CD
:100778002508FF00240884000A128A11D1230A12CE
:100788008A110A128A111B240A128A110130831253
:100798000313A4070318A50AAC2BFF1BDB2B831339
:1007A8007F1883170008840A0319FF0A080003301A
:1007B8008A000408840A82070034013400340A34A9
:1007C800003464340034E8340334103427345434A7
:1007D8003534473437342D344A34563400342534CC
:1007E800303433346434003483120313A401A50174
:1007F800201C042C2208A4070318A50A2308A5070F
:1008080001300310A20DA30DFF3E031D052C01307E
:100818000310A10CA00CFF3E031D0C2C2008210482
:10082800031DFC2B2508A1002408A0000800831242
:100838000313A3002308A20004300310A20CFF3EF8
:10084800031D212C22080A128A11C6220A128A11B3
:100858008312031323080A128A11C6220A128A1164
:10086800413083120313A200A20B382C3B2C080042
:10087800013083160313850001308316031788009F
:100888008901831203131F139F17831603131F1263
:100898009F12831203131F119F111F129F12831699
:1008A80003139F13831203131F1408008B1A0B1DC5
:1008B8006B2C0A128A117C230A128A11710883127E
:1008C8000313CD007008CC009D3081000B117C080B
:1008D800FF007B088A007A088400790E8300FE0EE8
:1008E8007E0E09000A128A11C0240A128A11831284
:1008F8000313240825040319862C0F300A128A11C1
:100908001B2408000C300A128A111B2408008312C9
:100918000313A100A0013A3021020318992C3030AA
:100928002102031C992CA001A00A200C08008312A4
:100938000313A4000A128A11C0240A128A1183120E
:1009480003132408803E0A128A111B240800831608
:100958000313811281110114811401159D30831232
:10096800031381008B160800831203130515080072
:10097800831203138511080083120313051108005D
:02098800013438
:04400E00F3EFFFFFCE
:00000001FF
