:060000000A128A11122809
:10000800FE00030EF8000408F9000A08FA0083123B
:1000180003137F08FB000A128A11F1290A128A11B8
:1000280015280A128A11A622FD00AF01B001B101FC
:10003800B201FC0183010A128A1129297E30831238
:100048000313A3002308A00000300A128A11C1215B
:100058000A128A11303083120313A3002308A00068
:1000680001300A128A11C1210A128A116D308312D5
:100078000313A3002308A00002300A128A11C12129
:100088000A128A11793083120313A3002308A000EF
:1000980003300A128A11C1210A128A1133308312DD
:1000A8000313A3002308A00004300A128A11C121F7
:1000B8000A128A115B3083120313A3002308A000DD
:1000C80005300A128A11C1210A128A115F3083127F
:1000D8000313A3002308A00006300A128A11C121C5
:1000E8000A128A11703083120313A3002308A00098
:1000F80007300A128A11C1210A128A117F3083122D
:100108000313A3002308A00008300A128A11C12192
:100118000A128A11733083120313A3002308A00064
:1001280009300A128A11C1210A128A113130831248
:100138000313A3002308A0003E300A128A11C1212C
:100148000A128A11323083120313A3002308A00075
:100158005E300A128A11C1210A128A1133308312C1
:100168000313A3002308A0006E300A128A11C121CC
:100178000A128A11343083120313A3002308A00043
:100188003D300A128A11C1210A128A1135308312B0
:100198000313A3002308A0005D300A128A11C121AD
:1001A8000A128A11363083120313A3002308A00011
:1001B8006D300A128A11C1210A128A11373083124E
:1001C8000313A3002308A0003B300A128A11C1219F
:1001D8000A128A11383083120313A3002308A000DF
:1001E8005B300A128A11C1210A128A11393083122E
:1001F8000313A3002308A0006B300A128A11C1213F
:100208000A128A112A3083120313A3002308A000BC
:1002180037300A128A11C1210A128A11303083122A
:100228000313A3002308A00057300A128A11C12122
:100238000A128A11233083120313A3002308A00093
:1002480067300A128A11C12108000A128A119922FC
:100258000A128A110A128A118A220A128A110A12A9
:100268008A1122200A128A110A128A117A220A1283
:100278008A118B1783120313AB01AC012A30831246
:10028800031331063204031D512980308500A6016D
:10029800AB01AC0108308600B529233031063204A1
:1002A800031D6A292C08803AFF0080307F02031D55
:1002B8005F2903302B020318B52901308312031379
:1002C800AB070318AC0A0030AC07B529AD01AE0185
:1002D8002C08803AA4002E08803A2402031D7629AF
:1002E8002D082B02031CB529831203132D082E0495
:1002F800031D8029803093292D032E04031D862990
:100308004030932902302D062E04031D8D292030FC
:10031800932903302D062E04031DA02908308500DB
:10032800310832040319A0293108A4002D08263EFB
:1003380084002408831380002D08263E840083133C
:100348000008D03E0A128A111C220A128A1183124E
:10035800031386000130AD070318AE0A0030AE075C
:100368006C29213083120313A5007530A400A40B57
:10037800BB29A50BBB29C029422983120313A2005C
:10038800831603178C18C4298312031322088312B7
:1003980003178D00831203132008831203178C00A0
:1003A8003F3083120313A1002108831603178C051D
:1003B8008312031303108B1B03148B138316031769
:1003C8000C1555308D00AA308D008C140C11831239
:1003D8000313031C08008B1708008B1A0B1D112A26
:1003E8000A128A1140220A128A117308831203130F
:1003F800B2007208B10030083206031D052A2F0822
:10040800310603190C2A3208B0003108AF000E2A51
:10041800B101B2013C3081000B117B08FF007A0862
:100428008A0079088400780E8300FE0E7E0E09008B
:1004380083120313A100222A831203136400831674
:1004480003178C18202A8312031321088312031719
:100458008D003F3083120313A00020088316031772
:100468008C050C1403100C18031400300318013009
:10047800831203170C080800F03083160313870053
:10048800831203130708F400F5017408F6007508D1
:10049800F7008F30831603138700831203130708AE
:1004A80076040A128A115F22F400F5017408F2003A
:1004B8007508F3000800F1006400831603178C1810
:1004C800602A7108831203178D003F30F00070080E
:1004D800831603178C050C1403100C180314003032
:1004E80003180130831203170C080800173083160D
:1004F8000313850080308312031385008030831630
:10050800031386008312031386010800831603135E
:100518008612831603178912831603138613061788
:100528008113151716178B150800831603138112EC
:1005380081110114811401153C30831203138100C9
:060548008B1608000134CF
:04400E00F3EFFFFFCE
:00000001FF
