:060000000A128A11122809
:10000800FE00030EFA000408FB000A08FC00831235
:1000180003137F08FD000A128A11DA2D0A128A11C9
:1000280015280A128A11FF27D300D001D101D20165
:1000380083010A128A11962983120313BC003030F7
:10004800B2003208B500013083120313AF07FF3046
:100058002F0784000A128A111F260A128A11B20079
:100068003208BD003D0803198F2925303D060319C4
:1000780049283D08B2003C088400320883138000F8
:100088000130B2003208BC072728BA01BB01B7010A
:100098002F0884000A128A111F260A128A110A12CE
:1000A8008A11B6270A128A11031C9828831203138F
:1000B800BA01BB010A3083120313A1000030A20069
:1000C8003B08A4003A08A3000A128A112A270A1238
:1000D8008A11831203132208BB002108BA002F08D3
:1000E80084000A128A111F260A128A11D03EB20011
:1000F800FF3003180030B3003208BA070318BB0AF0
:100108003308BB070130B2003208AF072F0884005C
:100118000A128A111F260A128A110A128A11B62790
:100128000A128A1103185E28013083120313AF07DD
:10013800FF302F0784000A128A111F260A128A111B
:10014800BD00003A03198F29643A0319AF280D3A04
:100158000319AF2827288312031335088400831353
:100168000008B800840A0008B9000230B20032085A
:10017800B507B91FC8280330B2003208B704B80958
:10018800B909B80A0319B90ABD01BD0A05303D0607
:100198000319EF283D08B2003207013E84000A1215
:1001A8008A111F260A128A11B3000A128A111F2601
:1001B8000A128A11B40034083902031DE5283308ED
:1001C8003802031CEF280130B2003208BD070530A1
:1001D8003D06031DCE283A083B040319FD283708BD
:1001E80003390319FD28FF30BA070318BB0AFF308B
:1001F800BB073D08B200B301B21BB3033308803A12
:10020800B4003B08803A3402031D0C293A08320234
:1002180003181C29831203133D08B200B301B21B53
:10022800B3033208BA023308031CBB03BB022029FC
:1002380083120313BA01BB013A083B040319392995
:100248002030B2003C08840032088313800001305B
:10025800B2003208BC07FF30BA070318BB0AFF30E8
:10026800BB073A083B04031D24293708033903193F
:1002780048292D30B2003C088400320883138000DE
:100288000130B2003208BC073D08B2003208B6009F
:10029800FF30B2003208B607360A031927280A3099
:1002A800A9000030AA003608B2003207013E8400D7
:1002B8000A128A111F260A128A11A1000A128A112B
:1002C8001F260A128A11A2003908A4003808A300C0
:1002D8000A128A119C250A128A1183120313220812
:1002E800AC002108AB000A128A114A260A128A11A8
:1002F800831203132908303EB3003308BD003D08BC
:10030800B2003C0884003208831380000130B20038
:100318003208BC074C29831203133C08840083135A
:1003280080010800323083120313CC000030CD0066
:100338003230CE000030CF000A128A11E5270A12A7
:100348008A110A128A15F9270A128A110A128A11C1
:10035800D6270A128A110A128A1104250A128A114A
:100368000A128A1101270A128A110A128A117E2694
:100378000A128A118B17003083120313A500A600F6
:100388000A128A11A1270A128A1100300A128A1148
:10039800C6270A128A110B3083120313A500803076
:1003A800A6000A128A11D7260A128A11333083123C
:1003B8000313C000BB30BF00DF30BE00BE0BE22914
:1003C800BF0BE229C00BE2290A128A118B270A12F5
:1003D8008A11831203135108B1005008B0004C3041
:1003E800BE003E08B2004E30BF003F08B3000A12FC
:1003F8008A11CB220A128A11831203133108C20010
:100408003008C1004D08B1004C08B0004F08B300D7
:100418004E08B2000A128A11EF230A128A1100301C
:100428000A128A11C6270A128A1183120313410875
:10043800420403192E2A1330BE003E08AF004208BA
:10044800B1004108B00043300A128A1120200A1274
:100458008A11512A203083120313BE003E08C300BC
:100468002030BE003E08C4002030BE003E08C50053
:100478002030BE003E08C600F330BE003E08C7006C
:100488002030BE003E08C8006D30BE003E08C900DE
:100498006D30BE003E08CA00CB01433083120313FF
:1004A800A5000030A6000A128A11D7260A128A115E
:1004B80040300A128A11C6270A128A111A3083128A
:1004C8000313BE003E08AF004D08B1004C08B00051
:1004D80043300A128A1120200A128A11203083120E
:1004E8000313BE003E08C9002530BE003E08CA00FE
:1004F8004330A5000030A6000A128A11D7260A1236
:100508008A11033083120313C0008A30BF005530AC
:10051800BE00BE0B8D2ABF0B8D2AC00B8D2A403022
:100528000A128A11C6270A128A112030831203136D
:10053800BE003E08AF004F08B1004E08B00043307F
:100548000A128A1120200A128A11203083120313FA
:10055800BE003E08C9002530BE003E08CA00433030
:10056800A5000030A6000A128A11D7260A128A119D
:10057800033083120313C0008A30BF005530BE0019
:10058800BE0BC42ABF0BC42AC00BC42AED290230F3
:100598008312031331063004031DF62A8518861CBE
:1005A800E42A32088400CE3083138000840AFF30A6
:1005B800800033088400CE308000840AFF30F22A9D
:1005C80032088400323083138000840A00308000AF
:1005D8003308840032308000840A00308000B00183
:1005E800B10108008518861C632B0030A700013074
:1005F800A8003008013EB40031080318013E003E4F
:10060800B500B409B509B40A0319B50A3408A1003C
:100618003508A2001930A3000030A4000A128A117C
:100628002A270A128A11831203132208AA00210812
:10063800A9000A128A11A9240A128A118312031323
:1006480032088400270883138000840A2808800061
:100658000030A7000130A8003008013EA100310891
:100668000318013E003EA2001930A3000030A40088
:100678000A128A112A270A128A11831203132208DE
:10068800AA002108A9000A128A11A9240A128A11AB
:10069800831203132709B4002809B500B40A031903
:1006A800B50A3408643EB60035080318013E003E1A
:1006B800B700B609B709B60A0319B70ABE2B003046
:1006C800A7000130A8003008013EA1003108031836
:1006D800013E003EA2001930A3000030A4000A1217
:1006E8008A112A270A128A11831203132208AA00E0
:1006F8002108A9000A128A11A9240A128A11831250
:10070800031332088400270883138000840A28080A
:1007180080000030A7000130A8003008013EA10089
:1007280031080318013E003EA2001930A300003032
:10073800A4000A128A112A270A128A1183120313A3
:100748002208AA002108A9000A128A11A9240A125B
:100758008A11831203132709B4002809B500B40AC3
:100768000319B50A3408643EB60035080318013E7B
:10077800003EB70033088400360883138000840ADB
:1007880037088000320884000008B400840A000892
:10079800B500330884000008B600840A0008B700D2
:1007A800B609B709B60A0319B70A34083607A70005
:1007B80035080318350A3707A800A630A9000E30F7
:1007C800AA000A128A11A924831203132808B10067
:1007D8002708B000080083120313B11BB31FFE2BB8
:1007E800B009B109B00A0319B10AB209B309B20ACA
:1007F8000319B30A1930A7000030A8003108B50062
:100808003008B4000630FF000310B40DB50DFF0B1F
:10081800082C3408A9003508AA000A128A11A9244C
:100828000A128A1183120313270895001930A700AA
:100838000030A8003108B5003008B4003408B5000D
:10084800B4013408A9003508AA000A128A11A9249B
:100858000A128A118312031327080339B600B60E49
:1008680017083606CF39360697001930A70000302A
:10087800A8003308B5003208B4000630FF000310A2
:10088800B40DB50DFF0B432C3408A9003508AA0098
:100898000A128A11A9240A128A118312031327083B
:1008A8009B003308B5003208B4003408B500B40121
:1008B8003408A9003508AA001930A7000030A8009C
:1008C8000A128A11A9240A128A1103308312031307
:1008D8002705B70000302805B8000230A70000300F
:1008E800A8003808AA003708A9000A128A11A92402
:1008F8000A128A1183120313271C862C83120313EE
:100908009D16892C831203139D121930A7000030FD
:10091800A8003308B5003208B4003408B500B401A3
:100928003408A9003508AA000A128A11A9240A1253
:100938008A1183120313271CA52C831203131D1677
:100948000800831203131D12080083120313AD015C
:10095800A81FB52CA709A809A70A0319A80AAD0159
:10096800AD0AAA1FC02CA909AA09A90A0319AA0A2B
:100978000130AB002B08AD06AE01AF0127082804F3
:100988000319F72CAC01AC0AA81BD62C01300310B4
:10099800A70DA80DFF3E031DCB2C0130AB002B0883
:1009A800AC07C82C01300310AE0DAF0DFF3E031D80
:1009B800D72C28082A02031DE32C27082902031C28
:1009C800EC2C2708A9022808031CAA03AA022E1443
:1009D80001300310A80CA70CFF3E031DED2C0130BD
:1009E800AC02031DD62C2D080319FF2CAE09AF0944
:1009F800AE0A0319AF0A2F08A8002E08A70008009E
:100A0800831603130610831603170912831603139C
:100A1800851183160317881183160313051183168E
:100A280003170811C63083160313870083120313B4
:100A380006100A128A15F1270A128A110A128A1553
:100A4800ED270A128A11623083120313A60065305B
:100A5800A500A50B2D2DA60B2D2D02300A128A11EB
:100A68004D270A128A110D3083120313A600FB309A
:100A7800A500A50B3D2DA60B3D2D28300A128A1185
:100A88004D270A128A1108300A128A114D270A12B4
:100A98008A110F300A128A114D270A128A1106305C
:100AA8000A128A114D27080083120313A200221C80
:100AB800612D831203130714642D83120313071087
:100AC8002208A10001300310A10CFF3E031D672D71
:100AD800211C722D831203138715752D831203139E
:100AE80087112208A10002300310A10CFF3E031D4C
:100AF800782D211C832D831203130716862D83124C
:100B0800031307122208A10003300310A10CFF3EB3
:100B1800031D892D211C942D831203138716972DED
:100B2800831203138712061406140614061008000D
:100B380083120313A601A701210822040319D52D46
:100B4800A801A80AA21BB42D01300310A10DA20D03
:100B5800FF3E031DA92D0130A5002508A807A62DD5
:100B680001300310A60DA70DFF3E031DB52D220869
:100B78002402031DC12D21082302031CCA2D2108AC
:100B8800A3022208031CA403A402261401300310A4
:100B9800A20CA10CFF3E031DCB2D0130A802031DA2
:100BA800B42D2708A2002608A10008008B1A0B1DE7
:100BB800EB2D0A128A11AC260A128A1171088312C7
:100BC8000313D1007008D0009D3081000B118B19E0
:100BD8000B1C082E0608F9007908A00020080A1244
:100BE8008A116E270A128A110A128A11F2270A122A
:100BF8008A11700871040319072E02308312031337
:100C08008506023086060B107D0883120313FF0049
:100C18007C088A007B0884007A0E8300FE0E7E0E14
:100C28000900FF1B1F2E83137F1883170008840AEF
:100C38000319FF0A080006308A000408840A82079C
:100C48000034013400340A34003464340034E834A5
:100C5800033410342734543435344734373420348B
:100C68004A345634003425343534643420346D34F1
:100C78006D34003431343A34253434346434003437
:100C880032343A3425343434643400348312031350
:100C980029082A040319792EAE01AE0AAA1B602E70
:100CA80001300310A90DAA0DFF3E031D552E01307A
:100CB800AD002D08AE07522E2A082C02031D662E01
:100CC80029082B02031C6E2E2908AB022A08031CD4
:100CD800AC03AC0201300310AA0CA90CFF3E031DA3
:100CE8006F2E0130AE02031D602E2C08AA002B08BF
:100CF800A90008000630831603138700FF3092000E
:100D08003F308312031397051708F0390C38970002
:100D18001D08F0390C389D00CF30970580309500BC
:100D28009D121D1280309B008316031386108510B8
:100D380083120313851086108C101208FC390138B1
:100D4800920012158C1CA62E831603138701080027
:100D5800831203139F149F18AF2E831603131E08C4
:100D6800F20006300310F20CFF3E031DB62E83126C
:100D780003131E08F300F4010310F30DF40D031020
:100D8800F30DF40D72087307F500003003180130F5
:100D98007407F6007508F7007608F8007808F1007F
:100DA8007708F00008000A128A15F5270A128A1136
:100DB800831203132608FF00250884000A128A11EB
:100DC80015260A128A11003A031908008312031320
:100DD8002608FF00250884000A128A1115260A121F
:100DE8008A110A128A114D270A128A1101308312B8
:100DF8000313A5070318A60ADC2E01308316031374
:100E080085000130831603178800890183120313B4
:100E18001F139F17831603131F129F1283120313A6
:100E28001F119F111F129F12831603139F13831202
:100E380003131F14413083120313A200ED30A100E5
:100E4800A10B242FA20B242F292F08008312031390
:100E5800A501A601211C362F2308A5070318A60AF9
:100E68002408A60701300310A30DA40DFF3E031D9F
:100E7800372F01300310A20CA10CFF3E031D3E2F9B
:100E880021082204031D2E2F2608A2002508A100F0
:100E9800080083120313A4002408A30004300310DD
:100EA800A30CFF3E031D532F23080A128A1158254D
:100EB8000A128A118312031324080A128A11582568
:100EC8000A128A11413083120313A300A30B6A2F5D
:100ED8006D2F0800F2007208F00006300310F00CC5
:100EE800FF3E031D722F70080139F1007108F300ED
:100EF8007308031D842F8312031353030319521419
:100F08007308F000700883120313D30008000A1254
:100F18008A15ED270A128A1101300A128A114D2703
:100F28000A128A110D3083120313A600FB30A500A4
:100F3800A50B9C2FA60B9C2F08000A128A15ED27DB
:100F48000A128A1183120313250826040319B12FE4
:100F58000F300A128A114D2708000C300A128A1124
:100F68004D27080083120313A200A1013A30220280
:100F78000318C42F30302202031CC42FA101A10A78
:100F8800210C080083120313A5000A128A15ED2705
:100F98000A128A11831203132508803E0A128A1145
:100FA8004D27080083160313861283160317891228
:100FB80083160313861306178113151716178B1537
:100FC800080083160313811281110114811401157D
:100FD8009D308312031381008B16080083120313BC
:100FE800521CFC2F52100130F0000030F1000800B4
:080FF800F001F10108000134D1
:101FDA0083120313051108008312031385110800E5
:101FEA0083120313051508008316031306179501B8
:061FFA0016178B1508000C
:04400E00F3EFFFFFCE
:00000001FF
