:060000000A128A11122809
:10000800FE00030EF9000408FA000A08FB00831238
:1000180003137F08FC000A128A11942A0A128A1113
:1000280015280A128A11D922B300B001B101B20110
:1000380083010A128A1120280A128A11BF220A1281
:100048008A110A128A11B0220A128A110A128A1116
:10005800CC220A128A110A128A1147220A128A111C
:100068000A128A1103210A128A118B1783120313A9
:10007800071E66280A30A8000030A9003108AB0026
:100088003008AA000A128A11B8210A128A118312AA
:10009800031328080A128A1170220A128A11FE39DB
:1000A800831203138600213083120313AF007530C7
:1000B800AE00AE0B5D28AF0B5D28622883120313D8
:1000C80007128716871E9F280A30A8000030A9004B
:1000D8000A30A0000030A1003108A3003008A200B7
:1000E8000A128A117A210A128A118312031321082B
:1000F800AB002008AA000A128A11B8210A128A1134
:100108008312031328080A128A1170220A128A110C
:10011800FE39831203138600213083120313AF00C4
:100128007530AE00AE0B9628AF0B96289B2883122D
:10013800031387120717071FD8280A30A8000030B2
:10014800A9006430A0000030A1003108A3003008E5
:10015800A2000A128A117A210A128A118312031341
:100168002108AB002008AA000A128A11B8210A1235
:100178008A118312031328080A128A1170220A129C
:100188008A11FE3983120313860021308312031368
:10019800AF007530AE00AE0BCF28AF0BCF28D428F8
:1001A8008312031307138717871F3A28E830A00024
:1001B8000330A1003108A3003008A2000A128A11F6
:1001C8007A210A128A118312031320080A128A114B
:1001D80070220A128A11FE39831203138600213015
:1001E80083120313AF007530AE00AE0BF928AF0BC6
:1001F800F928FE2883120313871307163A28FC30C0
:1002080083120313A3002308A00000300A128A11E6
:10021800EC210A128A11603083120313A300230809
:10022800A00001300A128A11EC210A128A11DA3070
:1002380083120313A3002308A00002300A128A11B4
:10024800EC210A128A11F23083120313A300230847
:10025800A00003300A128A11EC210A128A116630B2
:1002680083120313A3002308A00004300A128A1182
:10027800EC210A128A11B63083120313A300230853
:10028800A00005300A128A11EC210A128A11BE3028
:1002980083120313A3002308A00006300A128A1150
:1002A800EC210A128A11E03083120313A3002308F9
:1002B800A00007300A128A11EC210A128A11FE30B6
:1002C80083120313A3002308A00008300A128A111E
:1002D800EC210A128A11F63083120313A3002308B3
:1002E800A00009300A128A11EC21080083120313B6
:1002F800A501A601200821040319B329A701A70A0B
:10030800A11B922901300310A00DA10DFF3E031D72
:1003180087290130A4002408A70784290130031085
:10032800A50DA60DFF3E031D932921082302031DD9
:100338009F2920082202031CA8292008A2022108BC
:10034800031CA303A302251401300310A10CA00C65
:10035800FF3E031DA9290130A702031D9229260883
:10036800A1002508A0000800831203132808290407
:100378000319E729AD01AD0AA91BCE2901300310E5
:10038800A80DA90DFF3E031DC3290130AC002C08A0
:10039800AD07C02929082B02031DD42928082A02E1
:1003A800031CDC292808AA022908031CAB03AB029A
:1003B80001300310A90CA80CFF3E031DDD290130F4
:1003C800AD02031DCE292B08A9002A08A8000800A1
:1003D80083120313A200831603178C18EF298312C4
:1003E80003132208831203178D00831203132008B6
:1003F800831203178C003F3083120313A1002108D6
:10040800831603178C058312031303108B1B031425
:100418008B13831603170C1555308D00AA308D00E9
:100428008C140C1183120313031C08008B1708008B
:10043800831203139F149F181F2A831603131E0881
:10044800F20006300310F20CFF3E031D262A831229
:1004580003131E08F300F4010310F30DF40D031049
:10046800F30DF40D72087307F5000030031801301E
:100478007407F6007508F7007608F8007808F100A8
:100488007708F00008000130831603138500013057
:100498008316031788008901831203131F139F17FC
:1004A800831603131F129F12831203131F119F1128
:1004B8001F129F12831603139F13831203131F1413
:1004C800413083120313A100ED30A000A00B6A2A6B
:1004D800A10B6A2A6F2A080083120313A100762A47
:1004E800831203136400831603178C18742A83126B
:1004F80003132108831203178D003F30831203135F
:10050800A0002008831603178C050C1403100C1880
:100518000314003003180130831203170C08080075
:100528008B1A0B1DA52A0A128A111C220A128A117B
:10053800710883120313B1007008B0009D30810068
:100548000B117C08FF007B088A007A088400790E6A
:100558008300FE0E7E0E090083160313861283168F
:1005680003178912831603138613061781131517A9
:1005780016178B15080083160313811281110114B5
:10058800811401159D308312031381008B16080016
:100598000F3083160313870010308312031387006C
:0C05A800013083160313860008000134A4
:04400E00F3EFFFFFCE
:00000001FF
