:060000000A128A11122809
:10000800FE00030EF5000408F6000A08F700831244
:1000180003137F08F8000A128A119D2A0A128A110E
:1000280015280A128A11CA23FB00FA0183010A1251
:100038008A111E288B178B150A128A1188230A1217
:100048008A110A128A11A4210A128A110A128A1123
:10005800A2230A128A110A128A1166230A128A1125
:10006800003083120313A400A5000A128A113C234E
:100078000A128A11013083120313A4008030A500EC
:100088000A128A1173220A128A1183120313C301F6
:10009800C4015B284308383E84003A300002031844
:1000A80070280130C3070318C40A0030C4070A12B5
:1000B8008A1151230A128A1183120313A9004308D3
:1000C800383E84002908831380004308383E8400A2
:1000D8003030000203184E28033043064404031D41
:1000E800B5283808D03EA000FF3003180030A10022
:1000F8006430A2000030A3000A128A11C6220A1234
:100108008A11831203132008A9002108AA003908BC
:10011800D03EA000FF3003180030A1000A30A20032
:100128000030A3000A128A11C6220A128A11831209
:10013800031320082907AB0021080318210A2A07FE
:10014800AC003A082B07AD000030031801302C072B
:10015800AE002D08D03EC1002E080318013EFF3E18
:10016800C200023043064404031DDC283808D03E90
:10017800A000FF3003180030A1000A30A2000030B0
:10018800A3000A128A11C6220A128A1183120313C3
:1001980039082007A9000030031801302107AA00F8
:1001A8002908D03EC1002A080318013EFF3EC200BC
:1001B80043034404031DE7283808D03EC100FF303C
:1001C80003180030C2000D30A9004308383E8400EF
:1001D8002908831380004308013E383E84008001CB
:1001E80038300A128A113C220A128A118312031328
:1001F800C301C4014408803AFF0080307F02031D18
:1002080007290830430203183D2983120313411CB0
:100218000F29313010293030A9004303FF3A073E37
:100228002F3E84002908831380000230A00000308C
:10023800A1004208A3004108A2000A128A1149211C
:100248000A128A11831203132108C2002008C10070
:100258000130C3070318C40A0030C4074408803AB1
:10026800FF0080307F02031D3B2908304302031C36
:10027800092940300A128A1178230A128A112F306C
:1002880083120313A4000030432883120313A6012A
:10029800A11F5529A009A109A00A0319A10AA601AD
:1002A800A60AA31F6029A209A309A20A0319A30A7F
:1002B8000130A4002408A606A701A80120082104EB
:1002C80003199729A501A50AA11B76290130031056
:1002D800A00DA10DFF3E031D6B290130A4002408C9
:1002E800A507682901300310A70DA80DFF3E031DBF
:1002F800772921082302031D832920082202031CD1
:100308008C292008A2022108031CA303A302271496
:1003180001300310A10CA00CFF3E031D8D290130F4
:10032800A502031D7629260803199F29A709A809EC
:10033800A70A0319A80A2808A1002708A00008008E
:100348008316031306108316031709128316031363
:100358008511831603178811831603130511831655
:1003680003170811C630831603138700831203137B
:1003780006100A128A11C2230A128A110A128A1155
:10038800C6230A128A11623083120313A50065304E
:10039800A400A40BCD29A50BCD2902300A128A117D
:1003A800E9220A128A110D3083120313A500FB30CB
:1003B800A400A40BDD29A50BDD2928300A128A1117
:1003C800E9220A128A1108300A128A11E9220A124D
:1003D8008A110F300A128A11E9220A128A1106308C
:1003E8000A128A11E922080083120313A100211CB2
:1003F800012A831203130714042A83120313071014
:100408002108A00001300310A00CFF3E031D072A9D
:10041800201C122A831203138715152A831203132B
:1004280087112108A00002300310A00CFF3E031D15
:10043800182A201C232A831203130716262A83123C
:10044800031307122108A00003300310A00CFF3E7D
:10045800031D292A201C342A831203138716372ADE
:1004680083120313871206140614061406100800D4
:1004780083120313A20022088400831300080319BF
:10048800080022088400831300080A128A11AC238A
:100498000A128A1183120313220884000D30831371
:1004A8000006031D5D2A0A300A128A11AC230A12BB
:1004B8008A1183120313220884000A30831300066A
:1004C800031D6C2A0D300A128A11AC230A128A11F4
:1004D800013083120313A1002108A2073F2A0A1240
:1004E8008A11BE230A128A11831203132508FF00FA
:1004F800240884000A128A1124230A128A11003A55
:1005080003190800831203132508FF002408840038
:100518000A128A1124230A128A110A128A11E9225C
:100528000A128A11013083120313A4070318A50ABB
:10053800782A8B190B1CB92A0608F4007408F900EC
:1005480079080A128A110A230A128A110A128A11D0
:1005580097230A128A11700871040319B82A0A121B
:100568008A11B9230A128A110B107808831203130F
:10057800FF0077088A0076088400750E8300FE0E57
:100588007E0E090083120313A401A501201CD22AA0
:100598002208A4070318A50A2308A5070130031099
:1005A800A20DA30DFF3E031DD32A01300310A10C99
:1005B800A00CFF3E031DDA2A20082104031DCA2AC5
:1005C8002508A1002408A000080083120313A30033
:1005D8002308A20004300310A20CFF3E031DEF2ADB
:1005E80022080A128A11F8210A128A1183120313A7
:1005F80023080A128A11F8210A128A11413083123B
:100608000313A200A20B062B092B0800F2007208A4
:10061800F00006300310F00CFF3E031D0E2B70088F
:100628000139F1007108F3007308031D1F2B7B03C8
:10063800031D1F2B7A147308F0007008FB000800D4
:10064800FF1B2E2B83137F1883170008840A0319B6
:10065800FF0A080003308A000408840A820700346D
:10066800543435344734373420344A34563400341B
:100678000A128A11C6230A128A1183120313240844
:10068800250403194C2B0F300A128A11E92208009D
:100698000C300A128A11E9220800831203138C1EF7
:1006A800512BFF30A0002008A100210A031D642B54
:1006B8000A128A11B4230A128A1183120313562BC1
:1006C80021080800831603178711831603131815CA
:1006D800403099009A0118128312031398171816BC
:1006E800831603139816080083120313A4000A1232
:1006F8008A11C6230A128A11831203132408803E22
:100708000A128A11E9220800831603138612831637
:1007180003178912831603138613061781131517F7
:1007280016178B1508007A1C9F2B7A100130F000E1
:100738000030F1000800F001F101080083160313EE
:1007480005120611861083160317091009120800EE
:1007580083120313A0000C1EAF2B20089900080079
:10076800831203139A011A08080020308312031316
:100778008606080083120313051508008312031365
:0E0788008511080083120313051108000134C7
:04400E00F3EFFFFFCE
:00000001FF
